:100000000C9434000C9449000C9449000C94490061
:100010000C9449000C9449000C9449000C9449003C
:100020000C9449000C9449000C9449000C9449002C
:100030000C9449000C9449000C9449000C9449001C
:100040000C9449000C9449000C9449000C9449000C
:100050000C9449000C9449000C9449000C944900FC
:100060000C9449000C94490011241FBECFEFD8E036
:10007000DEBFCDBF11E0A0E0B1E0EEE7F1E002C0ED
:1000800005900D92A430B107D9F70E9484000C941A
:10009000BD000C94000084B5806C84BD08955D980B
:1000A00084B58F7384BD0895CF9387FD10C0C82F8A
:1000B00088B5882329F0C11103C00E944F0006C0F3
:1000C00088B5811103C0C1110E944B00C8BDCF91FA
:1000D0000895ECE7F0E08081807F80830895ECE76D
:1000E000F0E08081807F81608083089580917A0034
:1000F000806480937A0080917A0086FDFCCF8091A5
:100100007800909179000895219A559A83E284BDF0
:1001100089E085BD8FE787BD8FE388BD38988091E2
:100120007A00876880937A0080917C008064809355
:100130007C000E9469000E947600209102013091AB
:1001400003018217930718F488B58F5F05C028173D
:10015000390720F488B581500E9454000E946F0036
:100160000E94760020910001309101012817390783
:0E01700010F4299ADECF2998DCCFF894FFCF47
:04017E00C800A30210
:00000001FF
