:100000000C9434000C943E000C943E000C943E0082
:100010000C943E000C943E000C943E000C943E0068
:100020000C943E000C943E000C943E000C943E0058
:100030000C943E000C943E000C943E000C943E0048
:100040000C943E000C943E000C943E000C943E0038
:100050000C943E000C943E000C943E000C943E0028
:100060000C943E000C943E0011241FBECFEFD8E04C
:10007000DEBFCDBF0E947A000C94A4000C94000057
:1000800084B5806C84BD08955D9884B58F7384BDFC
:100090000895CF9397B5981780F0C82F88B5882317
:1000A00029F0C11103C00E94440006C088B5811127
:1000B00003C0C1110E944000C8BDCF910895ECE774
:1000C000F0E08081807F80830895ECE7F0E080811C
:1000D000807F81608083089580917A00806480931E
:1000E0007A0080917A0086FDFCCF80917800909113
:1000F00079000895219A559A83E284BD89E085BDEF
:100100008FE787BD88E088BD87B18C7F87B98091F4
:100110007A00876880937A0080917C008064809365
:100120007C000E945F000E946C00EC0123E0969529
:1001300087952A95E1F70E944900C130D24010F01E
:0C014000299AF1CF2998EFCFF894FFCF57
:00000001FF
